{
  "_format": "hh-sol-artifact-1",
  "contractName": "CoinFlip",
  "sourceName": "contracts/CoinFlip.sol",
  "abi": [
    {
      "inputs": [],
      "stateMutability": "nonpayable",
      "type": "constructor"
    },
    {
      "inputs": [
        {
          "internalType": "bool",
          "name": "guess",
          "type": "bool"
        }
      ],
      "name": "flipCoin",
      "outputs": [],
      "stateMutability": "payable",
      "type": "function"
    },
    {
      "inputs": [],
      "name": "owner",
      "outputs": [
        {
          "internalType": "address",
          "name": "",
          "type": "address"
        }
      ],
      "stateMutability": "view",
      "type": "function"
    },
    {
      "inputs": [],
      "name": "withdraw",
      "outputs": [],
      "stateMutability": "nonpayable",
      "type": "function"
    }
  ],
  "bytecode": "0x608060405234801561001057600080fd5b50336000806101000a81548173ffffffffffffffffffffffffffffffffffffffff021916908373ffffffffffffffffffffffffffffffffffffffff160217905550610549806100606000396000f3fe6080604052600436106100345760003560e01c80633ccfd60b146100395780637b8ff38f146100505780638da5cb5b1461006c575b600080fd5b34801561004557600080fd5b5061004e610097565b005b61006a60048036038101906100659190610281565b61018e565b005b34801561007857600080fd5b50610081610248565b60405161008e919061035f565b60405180910390f35b60008054906101000a900473ffffffffffffffffffffffffffffffffffffffff1673ffffffffffffffffffffffffffffffffffffffff163373ffffffffffffffffffffffffffffffffffffffff1614610125576040517f08c379a000000000000000000000000000000000000000000000000000000000815260040161011c9061037a565b60405180910390fd5b60008054906101000a900473ffffffffffffffffffffffffffffffffffffffff1673ffffffffffffffffffffffffffffffffffffffff166108fc479081150290604051600060405180830381858888f1935050505015801561018b573d6000803e3d6000fd5b50565b600034116101d1576040517f08c379a00000000000000000000000000000000000000000000000000000000081526004016101c89061039a565b60405180910390fd5b6000806002426101e1919061046d565b1490508115158115151415610244573373ffffffffffffffffffffffffffffffffffffffff166108fc60023461021791906103cb565b9081150290604051600060405180830381858888f19350505050158015610242573d6000803e3d6000fd5b505b5050565b60008054906101000a900473ffffffffffffffffffffffffffffffffffffffff1681565b60008135905061027b816104fc565b92915050565b60006020828403121561029357600080fd5b60006102a18482850161026c565b91505092915050565b6102b381610425565b82525050565b60006102c6601b836103ba565b91507f4f6e6c7920746865206f776e65722063616e20776974686472617700000000006000830152602082019050919050565b60006103066024836103ba565b91507f42657420616d6f756e74206d7573742062652067726561746572207468616e2060008301527f7a65726f000000000000000000000000000000000000000000000000000000006020830152604082019050919050565b600060208201905061037460008301846102aa565b92915050565b60006020820190508181036000830152610393816102b9565b9050919050565b600060208201905081810360008301526103b3816102f9565b9050919050565b600082825260208201905092915050565b60006103d682610463565b91506103e183610463565b9250817fffffffffffffffffffffffffffffffffffffffffffffffffffffffffffffffff048311821515161561041a5761041961049e565b5b828202905092915050565b600061043082610443565b9050919050565b60008115159050919050565b600073ffffffffffffffffffffffffffffffffffffffff82169050919050565b6000819050919050565b600061047882610463565b915061048383610463565b925082610493576104926104cd565b5b828206905092915050565b7f4e487b7100000000000000000000000000000000000000000000000000000000600052601160045260246000fd5b7f4e487b7100000000000000000000000000000000000000000000000000000000600052601260045260246000fd5b61050581610437565b811461051057600080fd5b5056fea2646970667358221220fefa8283f05acb2a7646b18924130c2348d92b1525469c9c8830c9156c9b1cc864736f6c63430008000033",
  "linkReferences": {},
  "deployedLinkReferences": {}
}