{
  "_format": "hh-sol-artifact-1",
  "contractName": "NewCoinFlip",
  "sourceName": "contracts/CoinFlip.sol",
  "abi": [
    {
      "inputs": [],
      "stateMutability": "payable",
      "type": "constructor"
    },
    {
      "inputs": [],
      "name": "deposit",
      "outputs": [],
      "stateMutability": "payable",
      "type": "function"
    },
    {
      "inputs": [
        {
          "internalType": "bool",
          "name": "guess",
          "type": "bool"
        }
      ],
      "name": "flipCoin",
      "outputs": [
        {
          "internalType": "bool",
          "name": "",
          "type": "bool"
        }
      ],
      "stateMutability": "payable",
      "type": "function"
    },
    {
      "inputs": [],
      "name": "getBalance",
      "outputs": [
        {
          "internalType": "uint256",
          "name": "",
          "type": "uint256"
        }
      ],
      "stateMutability": "view",
      "type": "function"
    },
    {
      "inputs": [],
      "name": "owner",
      "outputs": [
        {
          "internalType": "address",
          "name": "",
          "type": "address"
        }
      ],
      "stateMutability": "view",
      "type": "function"
    },
    {
      "inputs": [
        {
          "internalType": "uint256",
          "name": "amount",
          "type": "uint256"
        }
      ],
      "name": "withdraw",
      "outputs": [],
      "stateMutability": "nonpayable",
      "type": "function"
    }
  ],
  "bytecode": "0x6080604052336000806101000a81548173ffffffffffffffffffffffffffffffffffffffff021916908373ffffffffffffffffffffffffffffffffffffffff160217905550610722806100536000396000f3fe60806040526004361061004a5760003560e01c806312065fe01461004f5780632e1a7d4d1461007a5780637b8ff38f146100a35780638da5cb5b146100d3578063d0e30db0146100fe575b600080fd5b34801561005b57600080fd5b50610064610108565b6040516100719190610561565b60405180910390f35b34801561008657600080fd5b506100a1600480360381019061009c919061038f565b610110565b005b6100bd60048036038101906100b89190610366565b61024b565b6040516100ca91906104e6565b60405180910390f35b3480156100df57600080fd5b506100e8610316565b6040516100f591906104cb565b60405180910390f35b61010661033a565b005b600047905090565b60008054906101000a900473ffffffffffffffffffffffffffffffffffffffff1673ffffffffffffffffffffffffffffffffffffffff163373ffffffffffffffffffffffffffffffffffffffff161461019e576040517f08c379a000000000000000000000000000000000000000000000000000000000815260040161019590610521565b60405180910390fd5b478111156101e1576040517f08c379a00000000000000000000000000000000000000000000000000000000081526004016101d890610501565b60405180910390fd5b60008054906101000a900473ffffffffffffffffffffffffffffffffffffffff1673ffffffffffffffffffffffffffffffffffffffff166108fc829081150290604051600060405180830381858888f19350505050158015610247573d6000803e3d6000fd5b5050565b600080341161028f576040517f08c379a000000000000000000000000000000000000000000000000000000000815260040161028690610541565b60405180910390fd5b60008060024261029f919061062f565b149050821515811515141561030b573373ffffffffffffffffffffffffffffffffffffffff166108fc6002346102d5919061058d565b9081150290604051600060405180830381858888f19350505050158015610300573d6000803e3d6000fd5b506001915050610311565b60009150505b919050565b60008054906101000a900473ffffffffffffffffffffffffffffffffffffffff1681565b565b60008135905061034b816106be565b92915050565b600081359050610360816106d5565b92915050565b60006020828403121561037857600080fd5b60006103868482850161033c565b91505092915050565b6000602082840312156103a157600080fd5b60006103af84828501610351565b91505092915050565b6103c1816105e7565b82525050565b6103d0816105f9565b82525050565b60006103e360208361057c565b91507f496e73756666696369656e742062616c616e636520696e20636f6e74726163746000830152602082019050919050565b6000610423601b8361057c565b91507f4f6e6c7920746865206f776e65722063616e20776974686472617700000000006000830152602082019050919050565b600061046360248361057c565b91507f42657420616d6f756e74206d7573742062652067726561746572207468616e2060008301527f7a65726f000000000000000000000000000000000000000000000000000000006020830152604082019050919050565b6104c581610625565b82525050565b60006020820190506104e060008301846103b8565b92915050565b60006020820190506104fb60008301846103c7565b92915050565b6000602082019050818103600083015261051a816103d6565b9050919050565b6000602082019050818103600083015261053a81610416565b9050919050565b6000602082019050818103600083015261055a81610456565b9050919050565b600060208201905061057660008301846104bc565b92915050565b600082825260208201905092915050565b600061059882610625565b91506105a383610625565b9250817fffffffffffffffffffffffffffffffffffffffffffffffffffffffffffffffff04831182151516156105dc576105db610660565b5b828202905092915050565b60006105f282610605565b9050919050565b60008115159050919050565b600073ffffffffffffffffffffffffffffffffffffffff82169050919050565b6000819050919050565b600061063a82610625565b915061064583610625565b9250826106555761065461068f565b5b828206905092915050565b7f4e487b7100000000000000000000000000000000000000000000000000000000600052601160045260246000fd5b7f4e487b7100000000000000000000000000000000000000000000000000000000600052601260045260246000fd5b6106c7816105f9565b81146106d257600080fd5b50565b6106de81610625565b81146106e957600080fd5b5056fea2646970667358221220dd727ab79245fcd13d8df9b5381ad253a5f2fc767691d120ce98b6fef222c73864736f6c63430008000033",
  "linkReferences": {},
  "deployedLinkReferences": {}
}